:020000040000fa
:080000000002040000000000f2
:020000040000fa
:04000800ea02000008
:020000040000fa
:04000c00ea02000004
:020000040000fa
:04001000ea02000000
:020000040000fa
:04001400ea020000fc
:020000040000fa
:04001800ea020000f8
:020000040000fa
:04001c00ea020000f4
:020000040000fa
:04002000ea020000f0
:020000040000fa
:04002400ea020000ec
:020000040000fa
:04002800ea020000e8
:020000040000fa
:04002c00ea020000e4
:020000040000fa
:04003000ea020000e0
:020000040000fa
:04003400ea020000dc
:020000040000fa
:04003800ea020000d8
:020000040000fa
:04003c00ea020000d4
:020000040000fa
:04004000ea020000d0
:020000040000fa
:04004400ea020000cc
:020000040000fa
:04004800ea020000c8
:020000040000fa
:04004c00ea020000c4
:020000040000fa
:04005000ea020000c0
:020000040000fa
:04005400c8020000de
:020000040000fa
:04005800ea020000b8
:020000040000fa
:04005c00ea020000b4
:020000040000fa
:04006000ea020000b0
:020000040000fa
:04006400ea020000ac
:020000040000fa
:04006800ea020000a8
:020000040000fa
:04006c00ea020000a4
:020000040000fa
:04007000ea020000a0
:020000040000fa
:04007400ea0200009c
:020000040000fa
:04007800ea02000098
:020000040000fa
:04007c00ea02000094
:020000040000fa
:04008000ea02000090
:020000040000fa
:04008400ea0200008c
:020000040000fa
:04008800ea02000088
:020000040000fa
:04008c00ea02000084
:020000040000fa
:04009000ea02000080
:020000040000fa
:04009400ea0200007c
:020000040000fa
:04009800ea02000078
:020000040000fa
:04009c00ea02000074
:020000040000fa
:0400a000da02000080
:020000040000fa
:0400a400ea0200006c
:020000040000fa
:0400a800ea02000068
:020000040000fa
:0400ac00ea02000064
:020000040000fa
:0400b000ea02000060
:020000040000fa
:0400b400ea0200005c
:020000040000fa
:0400b800ea02000058
:020000040000fa
:0400bc00ea02000054
:020000040000fa
:0400c000ea02000050
:020000040000fa
:0400c400ea0200004c
:020000040000fa
:0400c800ea02000048
:020000040000fa
:0400cc00ea02000044
:020000040000fa
:0400d000ea02000040
:020000040000fa
:0400d400ea0200003c
:020000040000fa
:0400d800ea02000038
:020000040000fa
:0400dc00ea02000034
:020000040000fa
:0400e000ea02000030
:020000040000fa
:0400e400ea0200002c
:020000040000fa
:0400e800ea02000028
:020000040000fa
:0400ec00ea02000024
:020000040000fa
:0400f000ea02000020
:020000040000fa
:0400f400ea0200001c
:020000040000fa
:0400f800ea02000018
:020000040000fa
:0400fc00ea02000014
:020000040000fa
:04010000ea0200000f
:020000040000fa
:04010400ea0200000b
:020000040000fa
:04010800ea02000007
:020000040000fa
:04010c00ea02000003
:020000040000fa
:04011000ea020000ff
:020000040000fa
:04011400ea020000fb
:020000040000fa
:04011800ea020000f7
:020000040000fa
:04011c00ea020000f3
:020000040000fa
:04012000ea020000ef
:020000040000fa
:04012400ea020000eb
:020000040000fa
:04012800ea020000e7
:020000040000fa
:04012c00ea020000e3
:020000040000fa
:04013000ea020000df
:020000040000fa
:04013400ea020000db
:020000040000fa
:04020800ea02000006
:020000040000fa
:04020c00ea02000002
:020000040000fa
:04021000ea020000fe
:020000040000fa
:04021400ea020000fa
:020000040000fa
:04021800ea020000f6
:020000040000fa
:04021c00ea020000f2
:020000040000fa
:04022000ea020000ee
:020000040000fa
:04022400ea020000ea
:020000040000fa
:04022800ea020000e6
:020000040000fa
:04022c00ea020000e2
:020000040000fa
:04023000ea020000de
:020000040000fa
:04023400ea020000da
:020000040000fa
:04023800ea020000d6
:020000040000fa
:04023c00ea020000d2
:020000040000fa
:04024000ea020000ce
:020000040000fa
:04024400ea020000ca
:020000040000fa
:04024800ea020000c6
:020000040000fa
:04024c00ea020000c2
:020000040000fa
:04025000ea020000be
:020000040000fa
:04025400c8020000dc
:020000040000fa
:04025800ea020000b6
:020000040000fa
:04025c00ea020000b2
:020000040000fa
:04026000ea020000ae
:020000040000fa
:04026400ea020000aa
:020000040000fa
:04026800ea020000a6
:020000040000fa
:04026c00ea020000a2
:020000040000fa
:04027000ea0200009e
:020000040000fa
:04027400ea0200009a
:020000040000fa
:04027800ea02000096
:020000040000fa
:04027c00ea02000092
:020000040000fa
:04028000ea0200008e
:020000040000fa
:04028400ea0200008a
:020000040000fa
:04028800ea02000086
:020000040000fa
:04028c00ea02000082
:020000040000fa
:04029000ea0200007e
:020000040000fa
:04029400ea0200007a
:020000040000fa
:04029800ea02000076
:020000040000fa
:04029c00ea02000072
:020000040000fa
:0402a000da0200007e
:020000040000fa
:0402a400ea0200006a
:020000040000fa
:0402a800ea02000066
:020000040000fa
:0402ac00ea02000062
:020000040000fa
:0402b000ea0200005e
:020000040000fa
:0402b400ea0200005a
:020000040000fa
:0402b800ea02000056
:020000040000fa
:0402bc00ea02000052
:020000040000fa
:0402c000ea0200004e
:020000040000fa
:0402c400ea0200004a
:020000040000fa
:0402c800ea02000046
:020000040000fa
:0402cc00ea02000042
:020000040000fa
:0402d000ea0200003e
:020000040000fa
:0402d400ea0200003a
:020000040000fa
:0402d800ea02000036
:020000040000fa
:0402dc00ea02000032
:020000040000fa
:0402e000ea0200002e
:020000040000fa
:0402e400ea0200002a
:020000040000fa
:0402e800ea02000026
:020000040000fa
:0402ec00ea02000022
:020000040000fa
:0402f000ea0200001e
:020000040000fa
:0402f400ea0200001a
:020000040000fa
:0402f800ea02000016
:020000040000fa
:0402fc00ea02000012
:020000040000fa
:04030000ea0200000d
:020000040000fa
:04030400ea02000009
:020000040000fa
:04030800ea02000005
:020000040000fa
:04030c00ea02000001
:020000040000fa
:04031000ea020000fd
:020000040000fa
:04031400ea020000f9
:020000040000fa
:04031800ea020000f5
:020000040000fa
:04031c00ea020000f1
:020000040000fa
:04032000ea020000ed
:020000040000fa
:04032400ea020000e9
:020000040000fa
:04032800ea020000e5
:020000040000fa
:04032c00ea020000e1
:020000040000fa
:04033000ea020000dd
:020000040000fa
:04033400ea020000d9
:020000040000fa
:10040000af8b20000e7f22000e018800000000004c
:10041000000020000000e000020032000001200087
:1004200020028800140007006c0007000000e000b4
:1004300003003a0080db20000100200002003700aa
:100440000000200001002000810f70000100320038
:1004500014000700000020000000e000020032004d
:100460000000020000000000020e02000000000078
:100470000040da000000fe004440a9008004200093
:100480000000e0000300320000002000a00188000e
:100490004440a800000006008a1f78008b1f7800e7
:1004a0000000060091018800800478000000eb0045
:1004b0001a003700e284440032a0b4009905ba0063
:1004c000e284440032a0b4009906ba00e2844400f9
:1004d00032a0b4000006eb00476fde00fd07b2005b
:1004e000636ce10003003a00ebff07000000eb0043
:1004f0000a003700606ce10004003a00005deb0088
:100500008b05e900fdff3e00040037006168e10053
:10051000010032000086eb000b00070019c7ba008b
:100520001905ba000e04e00003003a000a00e000da
:10053000e0ff3a0000000600fe07b2009e018800be
:100540008a047800f5ff3700395dba008b05e900b1
:100550000c003200295dba008b05e900080032006a
:100560000c00e00003003a00e284440032a0b40032
:10057000f5ff370019ddba008b05e900faff3a00f4
:100580008904e800e184440032a0b40000000600c1
:10059000801f78000000fa003011800000407800d1
:1005a00002e8b7008560a9000080fa004f007800db
:1005b00000400600801f78000200fa00b0118000a1
:1005c000004f780087c0a9000080fa004f00780033
:1005d000004006000040da000000fe0000000500b8
:1005e0000000fa0068815700cfb897002d0007007f
:1005f0000080fa000000060000003700ea8747008c
:10060000889fbe008a9fbe008e1f7800000478007d
:10061000030078007287570084e2260055c7260041
:10062000049fbe00c3962200030f78006c8757001a
:10063000004feb0011059000a10490009105780097
:100640000200e000020032000207780001003700db
:10065000728757000000e00002003a000e007800a8
:10066000a10207000a00e000030035008a0f5000d5
:10067000010036000a0078000b027800890178003a
:10068000000178008e007800080078001c00070048
:100690004f0778004f05be004f04be00af00b10009
:1006a000000006008201780001017800f1ff2700b8
:1006b000ac023700889fbe0000047800480090001c
:1006c00082047800808f5400010036008004780096
:1006d00009017800580090001802070058009000a7
:1006e0000900400050049800c80090008984500020
:1006f000490498000048eb004f04be0000000600cb
:10070000f2874700889fbe008a9fbe008c9fbe0074
:100710008e1f7800800478000105780002047800bc
:10072000830578006107620002003a008b0f5400d5
:1007300008003900080178008a0078000900780074
:10074000dcff07008b0f5400020039008805780099
:100750001e003700088655000c017800f00f560087
:100760000100360002012000010220007e805700b7
:10077000f90107008c06780005003700020120000f
:10078000fe80570009007800caff0700f086560077
:10079000ef8f5600f9ff3e004461de0000ff2f009e
:1007a0000091b90002014600fe8057000900780060
:1007b000c0ff07000e00e00004003a0008017800c6
:1007c0008a00780009007800baff07000b00780063
:1007d0004f0778004f06be004f05be004f04be0015
:1007e0002f01b10000000600000005000000050018
:1007f00000000500000178000040eb008080fb0055
:1008000081804000238a200063c278000404e00055
:1008100003003a00308a200060c078000000060023
:1008200092017800934f520004003a00308a200071
:1008300060c078000309e800010037000040e800cc
:10084000ea4f5000edff360000000600f687470033
:10085000889fbe008a9fbe008c9fbe008e1f7800be
:10086000000578000104780083057800040678000c
:100870000000eb00c0b79f008080eb00d1b79f0065
:10088000e0b79f00f2b79f000008200080bf9f00e4
:1008900098007800010078008004eb000100370028
:1008a0008904e800304178000204e00003003200cf
:1008b00053c2b300834f5100f9ff3a000900e00032
:1008c00004003200090178000a00780079ff07006f
:1008d000188c44001807780050c2b3009e4f1000d7
:1008e0003f013a000e07e8000e0c780010003700b8
:1008f000cfb097000100a0000b003700cfb09700e9
:100900000110a00008003700cfb097000120a00020
:1009100005003700cfb097000130a000020037007b
:10092000cfb097000140a000c1b79f00000ce800c5
:100930001800780090407800b2c2b30082cf500017
:10094000f1ff320007003c0002c2b30082cf50002a
:10095000f0ff320032c2b30082cf500007003a00ed
:10096000efff3700d2c2b30082cf5000e0ff320069
:1009700002c3b30082cf5000e0ff3200a2c2b30036
:1009800082cf50000d003a00000ce8001c80e90006
:10099000000e780010007800e0b79f000000e00033
:1009a0000f003d00cfb097000100a200c1b79f002b
:1009b0000000ea00e0b79f00090037003901070096
:1009c000e0b79f0001003700000ce8001800780035
:1009d0009000fb000103b100e98f5000faff3600e0
:1009e0004fb097000008a300020032000010a100e1
:1009f000c0b79f0018007800e1c2b30090cf10008c
:100a000016003a008000eb00d1b79f000000e8001c
:100a1000000c7800a1c2b30090cf100006003a008d
:100a2000000ce8001c80e900000e7800100078003f
:100a3000d0b79f00090037001a010700d0b79f0008
:100a400001003700000ce800180078009000fb005f
:100a50000103b100e98f5000faff3600080078006a
:100a600064ff070080467800180078001000fb0043
:100a7000b501070091062000810f500038003200b8
:100a800012003c0041062000810f5000340032006b
:100a90000a003c0011062000810f500020003200a7
:100aa00031062000810f5000a000320051022000ca
:100ab000810f5000bc003a00b400370071062000de
:100ac000810f5000b8003c0088003700010720006b
:100ad000810f50005c00320007003c00e10620005e
:100ae000810f50007a003200f1062000810f500083
:100af000ad003a003900370051072000810f500047
:100b00002700320081072000810f50004200320090
:100b100031072000810f5000a3003a008f003700fa
:100b20008d80fb000c01780000fe2f000f004000bc
:100b3000b10107000000e000a800320018007800b2
:100b4000000ce8009041780002fe2f000f014100e8
:100b5000f88057000a00780024ff07000e003700d5
:100b60008d80fb008c0178001200200000fe2f0019
:100b70000f004000bf0107000000e00097003200b6
:100b8000180ce80002fe2f000f014100f88057000a
:100b90000a00780014ff07008084440090003700aa
:100ba0008d80fb008c0178000001eb0000fe2f001f
:100bb0000f004000af0107000000e0008700320096
:100bc000180ce80002fe2f000f014100f8805700ca
:100bd0000a00780004ff0700efff37008d80fb005c
:100be0008c0178000001eb0000fe2f000f00400098
:100bf000a00107000000e00078003200180ce800b7
:100c000002fe2f000f014100f88057000a00780013
:100c1000f5fe0700e0ff37008d80fb008c017800b7
:100c20000001eb0000fe2f000f00400091010700c3
:100c30000000e0006900320018007800000ce800b5
:100c4000904178001c0037008c0178000001eb0017
:100c5000010f200000fe2f000f004000850107005b
:100c60000000e0005d003200180ce8000fb09700b3
:100c70009fb097002fb19700bfb19700e00f5000d1
:100c8000e08f5800e00f5900e08f590009003a004a
:100c9000cfb597006fb49700a0892000120107001c
:100ca0000b0278008801780000017800a1892000fb
:100cb0004700370083c7b30002fe2f000f01410039
:100cc000f88057000a007800c8fe0700b2ff37001e
:100cd0000b8144008d80fb008c01780000fe2f000a
:100ce0000f004000b70107003c0037008d80fb007b
:100cf0000c01780000fe2f000f0040003e010700ad
:100d00000000e0003500320018007800000ce80018
:100d10009041780002fe2f000f014100f88057003b
:100d20000a007800b1fe07009bff370000c8b3003f
:100d300080cf560029003a00180ce8001c80e9001a
:100d4000000e780010407800e0df9f0013002000c4
:100d5000e2fd2f000f0141000800370000c8b3007a
:100d600080cf56001d003a00180ce8001c80e900f6
:100d7000000e78008001eb0010017800f880570029
:100d80000a0078001dfe070083ff370000c8b3008b
:100d900080cf560011003a00180ce8004fb29700bf
:100da000efb19700080037000e0c78000000eb0050
:100db000c0b79f00e0b79f000080eb00d0b79f0056
:100dc0000002eb008401780012002000018a20005c
:100dd0000a0078004afe07006fff3700180ce80091
:100de000090078004f0778004f06be004f05be008f
:100df0004f04be006f01b100000006008200fa003f
:100e0000889fbe008a1f7800000578008204780061
:100e1000c13f9f000004eb0010003700090278007a
:100e200088017800a2f72f000f01410081f72f0001
:100e30008f8040000a00780084fe07000800400010
:100e4000880f500004003d00b0042000c045880019
:100e50000084eb0004003700000478004f3897004e
:100e60001004e000edff3a00080078004f0578001c
:100e70004f04be000080fa000000060080007800e9
:100e80001000200002022000828f50000400320077
:100e9000e9805000e48f5000010036000000eb00b4
:100ea00000000600889fbe008a1f780000057800b9
:100eb0000a047800984478000805e8000900fb005f
:100ec000eeff07000000e000f9ff3a00b0c2b300f7
:100ed00080cf540005003200d0c2b3008000eb0088
:100ee00080cf540005003a00020037008000eb007c
:100ef00001003700110020000804e8000000eb00aa
:100f0000030037006a02b900020052000003b0007b
:100f10003801fb0003fd2f0082814100e98f510061
:100f2000f8ff36000100e00001003a000000ea008e
:100f30004f0578004f04be000000060080017800d5
:100f400002003700b15978000201e9000200e00018
:100f5000fcff3a0000000600889fbe008a9fbe008a
:100f6000800478000200e0005b003200014078005d
:100f7000814c780082814400f1f99f00e20f51001a
:100f80005500360091449800a1449800e1f99f0073
:100f9000d1f99f00e60f51004f003600b144980090
:100fa000c1f99f00e80f51004b0036000905ea0027
:100fb000630565000a8444000a055100c1ff2f0043
:100fc000010565000080fb008000eb00121020008e
:100fd0001310200075010700008cbe000a014400b8
:100fe00060b99f0071b99f00e80f55003a003600c4
:100ff000200498003104980040049800510498009f
:1010000020b99f0031b99f0040b99f0051b99f009e
:10101000f80f550030003600600498007104980005
:10102000000c9800110c9800200c9800310c9800ce
:10103000400c9800510c980020b19f0031b19f00e6
:1010400040b19f0051b19f0060b19f0071b19f00fe
:1010500000b99f0011b99f0064016400780141004c
:1010600002044400020555006011b8000203be00ee
:101070000002be000403be006022b800000072003f
:1010800081807200020173008381730010003700b9
:10109000009cbe000294be004004980051049800d9
:1010a0006204980073049800000c9800110c9800da
:1010b000220c9800330c9800400c9800510c9800ba
:1010c000620c9800730c98000a02b1000802b0008c
:1010d000ff0f5500eeff3e00090078004f05be00ef
:1010e0004f04be00000006008000780004003700b6
:1010f0003104e00002003a00000051000000060048
:10110000010178000108a300f9ff3a00810178008d
:1011100031017800f4ef2f00020242000281ea0060
:10112000020162000408280004016100f7ff320098
:1011300083007800010178003104e000fdff3a00ef
:101140000000510000000600f1fb2f0080804000ed
:10115000f98f500001003e000050a0000000060082
:10116000f9ff3700f28747008e1f780002027800ef
:10117000030178000000e000020032000007780060
:1011800001003700728757008002eb000100e00089
:10119000010032008102e90070805700060009005a
:1011a0000018eb000080eb0080bf9f0023102000a0
:1011b00093bf9f00aebf9f00b1bf9f00c5bf9f0000
:1011c0000100e00003003d00b1042000c14588009b
:1011d00006003700004feb00eebf9f00debf9f0010
:1011e0008400780070805700ae0007004f07780039
:1011f0002f01b10000000600881f7800000478006d
:1012000000082000808f50001700350010082000d3
:10121000808f50000b00340030082000808f500079
:1012200011003a00920078006880500000097800b0
:101230003002be002003be00049cbe000694be0027
:10124000070037009202780064805200000978009d
:101250001000be00a1000700009cbe000294be006a
:1012600010002000010037000000eb004f04780060
:101270000000060084082000848f50001d0032000a
:101280000d003c0014082000848f5000270032001d
:1012900002003c000408200004003700240820005d
:1012a000848f50003400320044082000848f5000a6
:1012b00043003a0036003700040a2000848f5000b3
:1012c0002700320004003c0004092000848f5000f5
:1012d0003b003a0028003700020c2000828f5000ab
:1012e0002f003200020f2000828f500034003a009d
:1012f0002b0037009380e9000200e0000500320077
:10130000810978001102fb00cfa2de00612bb90039
:101310002800370081097800114278000482fb0020
:101320008002eb006033b80022003700130278001f
:10133000e40052000200e00005003200810978005c
:101340001102be004fabde008603780019003700a3
:10135000810978001102be006033b8001500370023
:101360009380e9008109780011027800cfa2de00a5
:10137000612bb9000f00370093027800e88052001b
:10138000810978003102be002103be000900370048
:101390009380e9000200e00002003200f1ff370014
:1013a0009380e90081097800110278008002eb0047
:1013b0006033b8000498be000690be00100005001f
:1013c0000000050044082000848f500025003200f2
:1013d00008003c0014082000848f500014003200e4
:1013e00024082000848f50002400320004082000cc
:1013f0000c00370004092000848f50001f003200c9
:1014000004003c0084082000848f500024003a002f
:101410000e003700040a2000848f500011003200b3
:10142000040c2000848f50001d003a000d0037008e
:101430009380e90081097800910078000108780024
:10144000cf91de008288be00140037009380e9004f
:1014500081097800910078000108780082487800be
:101460000e0037009380e900810978009100780030
:101470000108780082087800080037009380e900ae
:101480008109780091007800010878006112b900a4
:10149000612bb9008498be008690be001000050044
:1014a000000005000200fa00881f780000047800a0
:1014b000e2bf9f0064815700080078004ffe0700dc
:1014c000980090000148a300010032000080eb006a
:1014d0004f0478000080fa000000060081037800c5
:1014e0001d0007000001be006000b8000478a300e2
:1014f00013003a006220e10015003e000d003900a3
:101500008301d1000281d3008180d3008301d10007
:101510000281d3008180d3008301d1000281d300f6
:101520008180d3000538b000c42add00f300b2008a
:101530008381720007f0a70003f0a00000000600fe
:1015400083ff2700020020006110b900f9ff370077
:1015500003ff2700f7ff3700c70ade00f107b200dc
:10156000f50fb20008003200e1cf42000200320065
:101570000170a00024000500810f700001003200fe
:101580000408050044000500810f700002003a00c5
:10159000140005008502e9000000400081c04800f9
:1015a000fcff3b000170a00024000500020ab90006
:1015b000001bb9000200b800810042008100430016
:0415c0000000060021
:020000040000fa
:1015c400546500007374000020470000726f00002f
:1015d40076650000204b000065790000626f000012
:1015e40061720000642000002d200000496e00009c
:1015f40069740000204f00004b0a00000043000003
:101604006f6400006520000028730000697a000000
:101614006564000029200000726500006365000015
:101624006976000065640000203a0000202500006f
:10163400730a00000000000031320000333400005f
:101644003536000037380000392a00003023000006
:020000040000fa
:101654000400fa00000f7800110798001e009000a3
:1016640000489000e74f5000020036003000200090
:101674005b0037001e009000804890001e00780038
:10168400214098001e009000100078000000e00047
:1016940003003200e10f50001e0032003a00370010
:1016a4001e00780081222000410098001e0078006e
:1016b40001222000210098001e0078002122200031
:1016c400310098001e00780041222000510098004b
:1016d4001e00780061222000610098008560a90046
:1016e4001e00780020409000674060000080fb00ee
:1016f400670060004c00dd0042058000f1ff280017
:101704008100610001007000400588009560a80018
:101714001f0037001e00780081232000410098003c
:101724001e00780001232000210098001e0078008c
:1017340021232000310098001e007800412320005e
:10174400510098001e007800612320006100980079
:1017540087c0a9001e007800204090006740600008
:101764000080fb00670060004800dd0092058000f7
:10177400f18f2f0081006100010070009005880046
:1017840097c0a800020037001000200014003700a2
:101794001e009000900078001e0078000108780078
:1017a4001e007800400090009e009000b100900060
:1017b400010878001e007800200090009e00900030
:1017c40091009000010878001e007800300090001d
:1017d4009e009000a1009000010878000000eb003a
:1017e4000080fa00000006000600fa00000f7800ee
:1017f40021479800220798001e00780030009000ce
:101804009000780000202000008060000000e000cc
:1018140007003a001e00780050009000ae4090008f
:101824008180fb00010878000000eb001300370002
:101834002e0090000000e00002003a00200020008a
:101844000e003700000000001e00780030009000f9
:101854009000780000202000008060000000e0007c
:10186400f9ff3a001e00780050009000ae4090004e
:101874008180fb00010878000000eb000080fa0082
:10188400000006000400fa00000f78001107980019
:1018940011003700000000001e00780030009000a6
:1018a4009000780000202000008060000000e0002c
:1018b400f9ff3a001e007800500090009e0090004e
:1018c400914078008180fb00010878001e009000a0
:1018d4000000e800100798001e00900010407800f7
:1018e4000004e000ebff3a000000eb000080fa0087
:1018f400000006000000fa0010002000704088007c
:10190400800028008040880000402000904088002b
:1019140030032000a0408800608120008040eb005c
:1019240001487800e18020006082200048ff070021
:10193400004088000000eb00204088008000280060
:10194400304088000040200040408800700620009d
:1019540050408800c080200041c0b3000148780096
:10196400418020008081200039ff0700004088006a
:1019740000a82100610020009300070020ae280089
:101984008000780060822000beff07000080fa001b
:10199400000006000000fa0052882000a1c2b30033
:1019a400208020004c000700408320005188200044
:1019b400811f780011b02800811f780007fb070001
:1019c400e48757004183200060822000adff0700b8
:1019d4000080fa00000006000200fa00004f7800c0
:1019e4009e80fb00000e200080806000000e20001e
:1019f400808f50000200320000c0eb000d00370061
:101a04009e4078006fcf60001e4078000004e00024
:101a1400030032001e407800ec4f500002003600f4
:101a240000c0eb00030037001e80fb00d1b128008a
:101a3400614078000080fa00000006000800fa0007
:101a4400881f7800100798004147980032079800d3
:101a54000040eb00004f7800100037000000000049
:101a64001e009000104078000004e000fcff3200eb
:101a74001e80fb00be009000008440001e00900009
:101a840010407800d4ff0700004c78001e4fe80097
:101a94001e0090008040eb00014878009e80fb000f
:101aa4004e4090000080fb000000e900808f500051
:101ab400eaff34004e4090000080fb00be0090001e
:101ac400008040008040eb00014878004f0478001b
:101ad4000080fa00000006000800fa0010079800d1
:101ae40041479800320798000040eb00004f78000f
:101af4000000000001003700000000001e009000fc
:101b0400104078000004e000fcff32001e0090004a
:101b140010407800b0ff0700104798001e80fb00bb
:101b2400be009000008040009e4090000148780074
:101b34001e4fe8001e0090008040eb000148780032
:101b44009e4090004e40900080cf5000eaff3a0043
:101b54001e80fb00be009000008040008040eb002f
:0c1b6400014878000080fa000000060034
:020000040000fa
:101b700004080000960000000000000000080000bb
:101b800004000000000000009a0800001e00000091
:101b900002000000286e69006c2900002500680022
:101ba000076c09004c836a009074a0007ac00000a2
:101bb0008068880000846c0082008100b808000002
:0c1bc00002000000000000000000000017
:020000040000fa
:101bcc00f03fb1000180b10006003500ee030900c2
:101bdc0000000000403fb1000180b100fbff3d0060
:101bec001000b000203fb00002003500008009005a
:081bfc000000000000000600db
:020000040000fa
:101c04000000fa003bff070062ff0700feff3700f9
:020000040000fa
:020000040002f8
:04aff8009e7a00003d
:020000040000fa
:020000040002f8
:04affc00683f0000aa
:00000001FF
